:020000040000fa
:080000000002040000000000f2
:020000040000fa
:0400080016030000db
:020000040000fa
:04000c0016030000d7
:020000040000fa
:0400100016030000d3
:020000040000fa
:0400140016030000cf
:020000040000fa
:0400180016030000cb
:020000040000fa
:04001c0016030000c7
:020000040000fa
:0400200016030000c3
:020000040000fa
:0400240016030000bf
:020000040000fa
:0400280016030000bb
:020000040000fa
:04002c0016030000b7
:020000040000fa
:0400300016030000b3
:020000040000fa
:0400340016030000af
:020000040000fa
:0400380016030000ab
:020000040000fa
:04003c0016030000a7
:020000040000fa
:0400400016030000a3
:020000040000fa
:0400440004030000b1
:020000040000fa
:04004800160300009b
:020000040000fa
:04004c001603000097
:020000040000fa
:040050001603000093
:020000040000fa
:04005400160300008f
:020000040000fa
:04005800160300008b
:020000040000fa
:04005c001603000087
:020000040000fa
:040060001603000083
:020000040000fa
:04006400160300007f
:020000040000fa
:04006800160300007b
:020000040000fa
:04006c001603000077
:020000040000fa
:040070000e0300007b
:020000040000fa
:04007400d8020000ae
:020000040000fa
:04007800160300006b
:020000040000fa
:04007c001603000067
:020000040000fa
:040080001603000063
:020000040000fa
:04008400160300005f
:020000040000fa
:04008800160300005b
:020000040000fa
:04008c001603000057
:020000040000fa
:040090001603000053
:020000040000fa
:04009400160300004f
:020000040000fa
:04009800160300004b
:020000040000fa
:04009c001603000047
:020000040000fa
:0400a000c802000092
:020000040000fa
:0400a400d002000086
:020000040000fa
:0400a800160300003b
:020000040000fa
:0400ac001603000037
:020000040000fa
:0400b0001603000033
:020000040000fa
:0400b400160300002f
:020000040000fa
:0400b800160300002b
:020000040000fa
:0400bc001603000027
:020000040000fa
:0400c0001603000023
:020000040000fa
:0400c400160300001f
:020000040000fa
:0400c800160300001b
:020000040000fa
:0400cc001603000017
:020000040000fa
:0400d0001603000013
:020000040000fa
:0400d400160300000f
:020000040000fa
:0400d800160300000b
:020000040000fa
:0400dc001603000007
:020000040000fa
:0400e0001603000003
:020000040000fa
:0400e40016030000ff
:020000040000fa
:0400e80016030000fb
:020000040000fa
:0400ec0016030000f7
:020000040000fa
:0400f00016030000f3
:020000040000fa
:0400f40016030000ef
:020000040000fa
:0400f80016030000eb
:020000040000fa
:0400fc0016030000e7
:020000040000fa
:0401000016030000e2
:020000040000fa
:0401040016030000de
:020000040000fa
:0401080016030000da
:020000040000fa
:04010c0016030000d6
:020000040000fa
:0401100016030000d2
:020000040000fa
:0401140016030000ce
:020000040000fa
:0401180016030000ca
:020000040000fa
:04011c0016030000c6
:020000040000fa
:0401200016030000c2
:020000040000fa
:0401240016030000be
:020000040000fa
:0401280016030000ba
:020000040000fa
:04012c0016030000b6
:020000040000fa
:0401300016030000b2
:020000040000fa
:0401340016030000ae
:020000040000fa
:0401380016030000aa
:020000040000fa
:04013c0016030000a6
:020000040000fa
:0401400016030000a2
:020000040000fa
:04014400160300009e
:020000040000fa
:04014800160300009a
:020000040000fa
:04014c001603000096
:020000040000fa
:040150001603000092
:020000040000fa
:04015400160300008e
:020000040000fa
:04015800160300008a
:020000040000fa
:04015c001603000086
:020000040000fa
:0402080016030000d9
:020000040000fa
:04020c0016030000d5
:020000040000fa
:0402100016030000d1
:020000040000fa
:0402140016030000cd
:020000040000fa
:0402180016030000c9
:020000040000fa
:04021c0016030000c5
:020000040000fa
:0402200016030000c1
:020000040000fa
:0402240016030000bd
:020000040000fa
:0402280016030000b9
:020000040000fa
:04022c0016030000b5
:020000040000fa
:0402300016030000b1
:020000040000fa
:0402340016030000ad
:020000040000fa
:0402380016030000a9
:020000040000fa
:04023c0016030000a5
:020000040000fa
:0402400016030000a1
:020000040000fa
:0402440004030000af
:020000040000fa
:040248001603000099
:020000040000fa
:04024c001603000095
:020000040000fa
:040250001603000091
:020000040000fa
:04025400160300008d
:020000040000fa
:040258001603000089
:020000040000fa
:04025c001603000085
:020000040000fa
:040260001603000081
:020000040000fa
:04026400160300007d
:020000040000fa
:040268001603000079
:020000040000fa
:04026c001603000075
:020000040000fa
:040270000e03000079
:020000040000fa
:04027400d8020000ac
:020000040000fa
:040278001603000069
:020000040000fa
:04027c001603000065
:020000040000fa
:040280001603000061
:020000040000fa
:04028400160300005d
:020000040000fa
:040288001603000059
:020000040000fa
:04028c001603000055
:020000040000fa
:040290001603000051
:020000040000fa
:04029400160300004d
:020000040000fa
:040298001603000049
:020000040000fa
:04029c001603000045
:020000040000fa
:0402a000c802000090
:020000040000fa
:0402a400d002000084
:020000040000fa
:0402a8001603000039
:020000040000fa
:0402ac001603000035
:020000040000fa
:0402b0001603000031
:020000040000fa
:0402b400160300002d
:020000040000fa
:0402b8001603000029
:020000040000fa
:0402bc001603000025
:020000040000fa
:0402c0001603000021
:020000040000fa
:0402c400160300001d
:020000040000fa
:0402c8001603000019
:020000040000fa
:0402cc001603000015
:020000040000fa
:0402d0001603000011
:020000040000fa
:0402d400160300000d
:020000040000fa
:0402d8001603000009
:020000040000fa
:0402dc001603000005
:020000040000fa
:0402e0001603000001
:020000040000fa
:0402e40016030000fd
:020000040000fa
:0402e80016030000f9
:020000040000fa
:0402ec0016030000f5
:020000040000fa
:0402f00016030000f1
:020000040000fa
:0402f40016030000ed
:020000040000fa
:0402f80016030000e9
:020000040000fa
:0402fc0016030000e5
:020000040000fa
:0403000016030000e0
:020000040000fa
:0403040016030000dc
:020000040000fa
:0403080016030000d8
:020000040000fa
:04030c0016030000d4
:020000040000fa
:0403100016030000d0
:020000040000fa
:0403140016030000cc
:020000040000fa
:0403180016030000c8
:020000040000fa
:04031c0016030000c4
:020000040000fa
:0403200016030000c0
:020000040000fa
:0403240016030000bc
:020000040000fa
:0403280016030000b8
:020000040000fa
:04032c0016030000b4
:020000040000fa
:0403300016030000b0
:020000040000fa
:0403340016030000ac
:020000040000fa
:0403380016030000a8
:020000040000fa
:04033c0016030000a4
:020000040000fa
:0403400016030000a0
:020000040000fa
:04034400160300009c
:020000040000fa
:040348001603000098
:020000040000fa
:04034c001603000094
:020000040000fa
:040350001603000090
:020000040000fa
:04035400160300008c
:020000040000fa
:040358001603000088
:020000040000fa
:04035c001603000084
:020000040000fa
:100400006f8120000edf20000e0188000000000038
:10041000000020000000e000020032000001200087
:100420002002880014000700820007000000e0009e
:1004300003003a006036210001002000020037006e
:100440000000200001002000810f70000100320038
:1004500014000700000020000000e000020032004d
:1004600000000200000000001e100200000000005a
:100470000040da000000fe004440a900a001200076
:100480000000e0000300320000002000a00188000e
:100490004440a800000006008a1f78008b1f7800e7
:1004a0000000060091018800800478000000eb0045
:1004b0001a003700e284440032a0b4009905ba0063
:1004c000e284440032a0b4009906ba00e2844400f9
:1004d00032a0b4000006eb00476fde00fd07b2005b
:1004e000636ce10003003a00ebff07000000eb0043
:1004f0000a003700606ce10004003a00005deb0088
:100500008b05e900fdff3e00040037006168e10053
:10051000010032000086eb000b00070019c7ba008b
:100520001905ba000e04e00003003a000a00e000da
:10053000e0ff3a0000000600fe07b2009e018800be
:100540008a047800f5ff3700395dba008b05e900b1
:100550000c003200295dba008b05e900080032006a
:100560000c00e00003003a00e284440032a0b40032
:10057000f5ff370019ddba008b05e900faff3a00f4
:100580008904e800e184440032a0b40000000600c1
:100590000000fa0087c0a9000080fa0000400600b1
:1005a0000000fa0087e0a9000080fa000040060081
:1005b0003600f800809fbe00829fbe00849fbe0070
:1005c000869fbe000000fa003004800068006000d2
:1005d0000000e00003003200bc0607002907070006
:1005e000004088008660a900000000000080fa003a
:1005f0004f03be004f02be004f01be004f00be00c1
:100600003600f900004006000000fa0084e0a9006e
:1006100011e1a9000080fa00004006000000fa0085
:100620008640a9000080fa00004006000040da0081
:100630000000fe000000050003f0a200889fbe003d
:100640008a9fbe008c1f7800460107004d013300d1
:100650006450e1004f0032006420e100520032009b
:1006600003826c0007003b000905d0000306d000a0
:10067000820f54000c065d000200390002003200b7
:1006800089017800030678008582550004003d004a
:100690000003fd008103fd008502ea008b85420016
:1006a000840f720002003b0060001000e080180020
:1006b0006011b8000005eb007a28e1000a0039005b
:1006c00006007800c75ddd00f707b200878075007f
:1006d0002d003700828171000a01780061056000f9
:1006e0008180d1000080d3008502e900f9ff3b0042
:1006f000060440008784480002003b0060041400a8
:10070000e0841c000988a300070032008a81710080
:1007100082817100610164008904d1000884d300e2
:100720008b05e800170037000978a30013003a0092
:100730000b00e000130034008b05e90008044400be
:1007400089844c000a4474000978a3000d003a0023
:100750000b00e000070034008b05e90008044400aa
:1007600089844c0001003a000b0020000978a300a6
:10077000f7ff32000001eb000200370082817100b8
:100780000a017800bc0007000cf0a70001f0a000ef
:10079000050137006420e10002003a00838f6c00fd
:1007a000050133000801be000200be00fe00370054
:1007b000889fbe008a9fbe008c1f7800e90007005a
:1007c000f000330003866c006450e1002e0032001c
:1007d0006420e100330032006150e1002f0032005c
:1007e0006120e1003100320085855500eb07b00043
:1007f0000900200008042000050037000804440018
:1008000089844c000a0031000603430087834b00b3
:100810000001530081815b00f8ff33000203be003a
:100820000800a0000804440089844c00f6ff390049
:10083000c639dd008301730001003200130020007f
:100840008904d1000884d3000998a3000500320070
:100850000800a7000300a0008904d1000884d30089
:100860008b05e8008904d1000884d3000001eb0067
:100870000281d2008000070001f0a1000cf0a70067
:1008800001f0a000c80037006420e100ca00320077
:100890000801be000200be00f7ff37006120e10042
:1008a000c50032006000b800f3ff370000002000f0
:1008b00001f82700f0ff37000003be009400070096
:1008c0006011b8000470a70007f0a10007f8a300aa
:1008d00017003a006509b1000d0032000d00350027
:1008e000860220000628e1000300350003002800ee
:1008f0006000b80002000500000040008180480050
:1009000002014900838149008502e900faff3a00ab
:1009100000000600f88f4200050034008100d1007d
:100920000080d3008502e800fcff3a0000000600ca
:100930006011b8008000eb00000005000001be005f
:10094000730007000470a70003f0a10003f8a300e0
:1009500013003a006509b1001000320009003500ab
:100960006928e100020035000100280000000500b0
:1009700000004000818048008502e900fcff3a0049
:1009800000000600f88f4200050035008100d1000c
:100990000080d3008502e800fcff3a00000006005a
:1009a0008000eb00000005004f89de008201780026
:1009b00058033700889fbe008a9fbe0000827000e7
:1009c0000402710004827100260032000004be009f
:1009d0000200be006011b8006b09200095022000e3
:1009e0000182cf000a0039000541b1000082cf002a
:1009f000070039000541b1000982cf000400390029
:100a00000541b1000882cf00010039000541b10065
:100a100005425200120032000a003b008281710040
:100a2000610164008100d1000080d3008984d3007b
:100a30000884d3008b05e8000442e800f7ff3a0081
:100a4000070037000804440089844c000000480077
:100a5000818048008b05e9000442e900f9ff3a0073
:100a6000050007004f05be004f04be000000060051
:100a70006011b800cfff3700810020006180550071
:100a80000b003d000b00200061fe2f000100e10083
:100a90001d00340082817100610164008904d1006d
:100aa0000884d3000000e800faff3a00710020003b
:100ab0006100640003007000020060000900320061
:100ac00061044400e0844c000988a5000500320060
:100ad0008b05e8006808e10002003a008904d100b3
:100ae0000884d300f20f20000258e10005003d0009
:100af000c75ddd00f907b200898075000800780045
:100b0000000006000bf827008b00780000000500ad
:100b1000c70ade00f107b200f50fb200080032008c
:100b2000e1cf4200020032000170a0002400050065
:100b3000810f700001003200040805004400050028
:100b4000810f700002003a00140005008502e900e0
:100b50000000400081c04800fcff3b000170a00085
:100b6000240005000004be00e9ff07000003be00ea
:100b70000405be000200be00e5ff0700844f7500bb
:100b8000000006000200be006450e10005003600cf
:100b90006420e100020036000968a30001003a0069
:100ba0000800be000160a0004f0678004f05be009f
:100bb0004f04be0000000600f0ff2f00f1ff2700e9
:100bc000f9ff3700889fbe008a9fbe008c1f780007
:100bd000e4ff0700ebff330003866c006450e10084
:100be000240032006420e100270032006150e1005f
:100bf000220032006120e100210032008b8542009a
:100c0000eb07b1000134b800003ab8000804420014
:100c100089844a00013ab8000030b800888040005a
:100c200009014a00040033000000400081804800b0
:100c3000020149008b05e900c909dd00830170004c
:100c40000100320013002000c814de004814dd004b
:100c50004709de001200b200c808de0008847000f8
:100c600085ff070001f0a1000cf0a70001f0a00033
:100c7000cdff37006120e100cfff32000801be0048
:100c80000200be00f7ff37006150e100fcff3a00b0
:100c9000c9ff37000c00fa00889fbe008a9fbe0083
:100ca0008c9fbe00afff07000206be0084057800df
:100cb0000200be00020020004a02070005003a00c0
:100cc0008b02b300120020004602070001003a0028
:100cd000f8856d000c01be00c60007000800be00cc
:100ce0009b0032000b08a3009e003a000df0a70005
:100cf0000be0a00009f0a7000bf0a00009f0a10094
:100d00000801be00bb0007000bf0a60095003200f2
:100d100001003c000bd0a0008acf7500b200330068
:100d20006000b8006250e10099003900a1003e0067
:100d30000b28a300a2003a000bf8a3000600320023
:100d40000b58a300a70032000801be00a90007004d
:100d50000800be00940032000800be00b201070087
:100d60000004be00050578000bf0a7000b30a600bc
:100d70000bf0a1005b079800324f200053f32300d3
:100d80003f02070005003d000800be0012002000e1
:100d9000700207000004be000a05e9004a07980037
:100da0006150b90000ff0700008fbe000c01be00bb
:100db00084ff070036020700300798000100e000ba
:100dc00002003d0060001000e0801800f2ff2700e4
:100dd000820f5000e08f580064003e000c00be00ff
:100de0002b02070020079800f2072000820f500016
:100df000e08f580005003c0012f82f00f3ff2f0091
:100e0000820f5000838f580009003d000a00e00067
:100e10000300320001003c000201ea0002057800f4
:100e20006000b800200798003a07980019003700c2
:100e30003e0090006100b900dbfe0700809fbe000d
:100e40000c00be004109dd004811de007208b1004f
:100e5000e40107000005be001e01be0059ff0700a7
:100e60004f01be00f4fd0700809fbe000c00be00d5
:100e70000a01be00f0fd07001e01be0051ff070081
:100e80004f01be00edfd07008221270013f3230070
:100e90004cff07000005be002e0090006100b90065
:100ea000c1fe070001f0a2000c01be00e3fd070037
:100eb0000006be000800be00480207000c01be008c
:100ec00040ff07000a01be00dcfd0700809fbe0056
:100ed0004a0007002e0590000af0a7000a05ea0064
:100ee000050037000800be000801be0035ff0700fe
:100ef0000004be000c00be000801be000a00a700ee
:100f000030ff07000006be000a05d100f5ff3a00d9
:100f10005e01900002e0a600030037000001be0061
:100f20003600070022fe07000004be004f00be008e
:100f30004a0107000801be0022ff07003e019000a1
:100f400004020700de0590000bf0a70001f0a200ec
:100f50004f06be004f05be004f04be000080fa00e1
:100f60000000060025000700f9ff370027000700f2
:100f70006000b8000bd0a7000bc0a0000be0a700da
:100f80000bc0a2000bc0a70001f82700f0ff37003c
:100f90000df8a300020032001e0007001900070030
:100fa0000bf8a300eaff32000b30a70001f0a2000b
:100fb000e7ff37000df8a300f9ff3a00f7ff37000d
:100fc0000801be000b000700e6ff320001003c00f4
:100fd0000df0a2006000b8000df0a70009000700a6
:100fe000dbff37000b000700f1ff2700f0ff2f00a9
:100ff000d7ff370001000700a101370001f82300e7
:101000000000050001f82700000005002002200074
:101010000100370010022000a040880000000600f8
:10102000889fbe008a9fbe0030044200b0844a0000
:1010300030054b0090854b006000b1000898be0061
:101040000a90be000440e10005c8e10006d0e100be
:1010500007d8e10002003100680040001008e800f5
:101060004f05be004f04be0000000600889fbe0072
:101070008a9fbe003004be002005be000418540044
:1010800005985c0006185d0007985d0011002000bf
:101090000440e10005c8e10006d0e10007d8e10006
:1010a000010039008000eb00108810004f05be00e1
:1010b0004f04be00000006001200fa00889fbe0028
:1010c0008a9fbe008c9fbe00e0b79f00f1b79f00d3
:1010d00082bf9f0093bf9f000605be000404be00b0
:1010e0000000eb00d0b79f00c0b79f00b0b79f00d3
:1010f000a0b79f0090b79f00000678005fb19700ef
:10110000cfb09700820141003fb097000200e0009d
:1011100004003d00370007007e805700c0ff070035
:1011200003003700330007007e805700cfff070021
:10113000dfb697000d00e0000c0035006fb297009d
:10114000ffb297000fbb97009fbb970010002000d5
:10115000010020006011b80000027200818272005c
:1011600002037300838373001b0007000c06e80072
:1011700001042000810f5600e0ff3a000d00e0005e
:1011800004003d000802be000a03be007e80570036
:10119000a3ff07005fa897000000e00005003a00e9
:1011a0001fb29700afb297003fb39700cfb397003d
:1011b000090007006fb09700ffb097000fb99700c4
:1011c0009fb997004f06be004f05be004f04be00fa
:1011d0000080fa0000000600010007000000060081
:1011e000a4b79f00b5b79f00c6b79f00d7b79f00b1
:1011f000000006004f09de0082817100b3b79f0036
:101200004f01de008180400082807000a1b79f0006
:101210008fb097004f09de00000040000200700010
:1012200090b79f007fa897004f01de0081804000ab
:101230008280700081b79f000d0007004f3ade00ea
:101240000000400004007000f0af9f00080007009d
:101250000402420085824a0006034b0087834b004c
:10126000dfff07000802be000a03be000000060000
:101270002fb29700bfb297004fb39700dfb397002c
:1012800000000600881f780018002000881f7800e2
:1012900089ff07008f87e9004f04780000000600ef
:1012a000801feb0084ff07008f87e9000000060025
:1012b000889fbe008a9fbe00e00f5000e08f58005c
:1012c000e00f5900e08f59000c003d006044b80069
:1012d0006055b8000000540081805c0002015d0090
:1012e00083815d00180020001500070008003d0004
:1012f000180007000004eb00050037000004eb00b5
:101300000f00070002003d00120007001800200037
:10131000dcff07000800e000060032006022b80091
:101320006033b8000000520081805a0002015b0067
:1013300083815b004f05be004f04be000000060025
:10134000e00f5200e08f5a00e00f5b00e08f5b007f
:10135000000006006044b8006055b8000402540064
:1013600085825c0006035d0087835d000000060047
:10137000889fbe008a9fbe008c1f7800e00f50003f
:10138000e08f5800e00f5900e08f59000d003d003c
:101390006044b8006055b8000000540081805c00d3
:1013a00002015d0083815d001c0020000820e10037
:1013b00009a8e1000ab0e1000bb8e1000d003d0012
:1013c000080037000006eb00e00f5200e08f5a00e3
:1013d000e00f5b00e08f5b0006003d006044b8005a
:1013e0006055b8000402540085825c0006035d006d
:1013f00087835d00aaff07000c00e00006003200b2
:101400006022b8006033b8000000520081805a00aa
:1014100002015b0083815b004f0678004f05be0030
:101420004f04be00000006000003be00b8fd070028
:101430006220e100020032000600be000500050047
:10144000e507b100f107b20004f0230084807000ca
:1014500007f0a70001f0a00024000500889fbe004f
:101460008a9fbe008c9fbe000004be00a8fd07003e
:101470000800be006420e10048003e005500320034
:1014800072212700132b24007f00070047003c0037
:101490000800be00c2ec2800e32c2c0078000700f6
:1014a000470035000800be0001f0a1000200200046
:1014b0000338230072000700430035000800be0017
:1014c000b2a32a0083fb2300befd07000200200018
:1014d00003f0230001f0a70003f0a00057fc070071
:1014e0006b0007000005be002ffd070001f0a20001
:1014f0000006be000200280013f32300b1fd070020
:101500000801be004dfc0700809fbe000c00be001d
:1015100032082800e3952b00aafd07004f01be000a
:1015200046fc07000006be000001be00a5fd070046
:10153000809fbe004241250083b82300a1fd070023
:101540000200200003e823003cfc07000c01be0061
:101550009cfd07000006be004f00be00f2f92b0004
:10156000c3d4230097fd07000200200003f02300ee
:1015700032fc07000c01be002ffc07000001be007a
:101580000c00be008afc07000200200003f02300cc
:101590002afc0700610145006e0007004f06be00ef
:1015a0004f05be004f04be000000060001f82700f2
:1015b0000000200022022000a2408800f7ff370030
:1015c0006000b800fbff370001f823000000200096
:1015d000f2ff370009f8a300f0ff32006000b80006
:1015e000eeff3700889fbe008a9fbe000003be004a
:1015f00047fd070085057800828152000200200027
:101600006220e10004003a00f307b1000400350055
:101610007718e100040035000600be001400370012
:101620006000b8000f003700f50f2000faff2f0010
:101630008502d1000a85d3008301e900fcff3b004d
:101640008184620000046500890f7400f2ff32009b
:101650008582ea000a85ea00818462000004650050
:1016600005fd070007f0a70001f0a0000081eb00d6
:101670000200e0004f05be004f04be00000006005f
:1016800014002000ac003700f4ff2f00aa00370040
:101690000001be001efd07000470a70003f0a100ba
:1016a0006509b100160032000d0035006828e10020
:1016b00006003500f0ff2f00f1ff27000300e000d7
:1016c00013003b000100280000000500000040005e
:1016d000818048008502e900fcff3a0008003700dd
:1016e000f88f420002003c008000eb000000050083
:1016f0008100d1000080d3008502e800fcff3a00a1
:101700000300e00002003b0060001000e0801800d1
:1017100000000600881f7800030478000300e00042
:1017200007003d0060001000e08018006001190013
:10173000e081190002003b0001f02d00030037009a
:101740009cfc070008f0a70001f0a0004f047800ff
:10175000000006000003be00edfc07006220e1006f
:10176000020032000600be000000060085024100b3
:10177000e30f20000328e10005003c00a3fe2f003a
:101780000328e10007003d000500200001003700ac
:10179000f50f200020022000a04088006000b80063
:1017a00008003700130020008381520005003d002f
:1017b0008100d1000080d3008301e800fcff3a00e3
:1017c00005002000c72add00f107b2008580700007
:1017d00007f0a70001f0a00000000600889fbe00ef
:1017e0008a9fbe008c9fbe000fff07008504780013
:1017f0000005be006420e10049003e006220e100d7
:1018000003003200090035000bf8a3004400320049
:101810000bf8a3000800320010022000a04088004e
:10182000f0ff2f00f1ff27003d00370001f82f00e7
:10183000000020003a0037003d0007007efb070053
:101840000006be000a00be00324f200053f3230002
:101850008dff0700060034000c00be0034000700b6
:1018600075fb07000006be000a00be00020037003c
:101870008904e9000c00be002d000700d1fc070020
:101880002b0007006dfb07000001be000c00be002e
:10189000c7fb07000005be000001be00c9fc070031
:1018a0000006be00a2f32300430d2c0063fb0700db
:1018b000809fbe000c00be00d2e32700d3f02b00b7
:1018c000c0fc07004f01be00b9fb07000006be00c8
:1018d0000a01be00bbfc07000a01be0057fb07005f
:1018e0000006be006148b9002ffc07000005be00dd
:1018f00032082800e3952b00b2fc07000c01be0063
:101900004efb07000006be000a00be0002002800d1
:1019100013f32300abfc07000c01be0047fb0700dc
:101920004f06be004f05be004f04be00000006007b
:1019300003f0230002000500889fbe008a9fbe00be
:10194000841f780087fc07004f00780011003300e7
:10195000f0ff2f00838f6c0006003b00040565003c
:101960000a00a7000800370009f0a60010002000b8
:1019700008003700820f5400838f5c000300390099
:101980001000200001003e000000200009f0a70028
:101990000000ea004f05be004f04be000000e0005a
:1019a0000000060080007800010178003104e000aa
:0c19b000fdff3a0000005100000006009e
:020000040000fa
:1019bc000d4100006c6c00005f5000004273000091
:1019cc005f700000726500007373000065640000b6
:1019dc00000000000d0000002e5600002e2e00000e
:0419ec002e000000c9
:020000040000fa
:1019f0000000fa00c802a900c822a800cc02a80072
:101a00008000200080118800113a8000000027002b
:101a10008080600000002600808f500003003a00a4
:101a2000c0002000c011880010003700113a80006b
:101a3000000027008080600000002500808f50009b
:101a400003003a00c0002000c011880007003700e2
:101a5000113a800000002700008060000000e000d4
:101a600002003a0070062000c011880000002a0021
:101a70009011880087e0a90091058000f0ff280000
:101a80008080600000002300010070009005880045
:101a900097e0a80087c0a90091058000f08f2f0073
:101aa0000080600000a0a0009005880097c0a900f9
:101ab00031e2a8003342a8000080fa0000000600ce
:101ac0000400fa00004f780011079800c8ff0700d3
:101ad0000b00370000000000911180000020200062
:101ae000008060000000e000fbff3a001e00fb00e9
:101af000a01188001e0090000000e9001007980067
:101b00001e0090000000e000f2ff3a00000000001c
:101b10009111800000102000008060000000e000b3
:101b2000fbff320031e2a9000080fa00000006004d
:101b30000400fa00100798000040eb0010479800de
:101b40001100200000c2b300ddff070011002000db
:101b500000c3b300daff07001100200080c7b30004
:101b6000d7ff070030c0b300004f780015003700e2
:101b70001e00fb004200dd009e0090000008de0019
:101b8000004078006f406000104798001e409000b1
:101b9000e94f5000040034001e4090007043b00034
:101ba00010479800030037001e4090000043b0002b
:101bb00010479800110020001e409000c0ff070051
:101bc0001e4fe9001e4078000004e000e8ff3d00e1
:101bd0001100200000c2b300b9ff07000000eb00b5
:101be000100798000080fa00000006000600fa00c6
:101bf00010079800210798000040eb00104798005c
:101c00001100200000c2b300adff0700110020004a
:101c100000c3b300aaff07001100200080c7b30073
:101c2000a7ff070070c0b300004f78001b0037000b
:101c30001e00fb004201dd001e009000ae0090007f
:101c4000820178008301e900030033008100d100a4
:101c50000080d300fbff3700004078006f40600039
:101c6000104798001e409000e94f500004003400d7
:101c70001e4090007043b0001047980003003700ea
:101c80001e4090000043b000104798001100200053
:101c90001e4090008aff07001e4fe9001e4078009a
:101ca0000004e000e2ff3d001100200000c2b3008c
:101cb00083ff07006000b800100798002107980014
:101cc0000080fa00000006000800fa00889fbe00ad
:101cd000300798000040eb00004f78001100200012
:101ce00000c2b30076ff07001e0037003e009000e0
:101cf0008000eb005efb07000004be001e80fb00be
:101d000064001000cf80de0027fb07000001be004a
:101d10000000200001122400defb07000001be00cd
:101d20000800be00a2fa070004fb07001007980095
:101d30001e019000d0cc2c000010b8004308de003b
:101d40006a00b90000007800000051004047980088
:101d50004e4090000043b0001100200058ff0700e3
:101d60001e4fe8001e407800e44f5000dfff3600b1
:101d70001100200000c2b30051ff07004f04be0055
:101d80000080fa00000006000400fa001007980026
:101d90000000eb00000f7800060037001e009000e6
:101da0001e004000104078001100200044ff070092
:101db0001e0fe8001e009000fafe07009e0f500064
:101dc000f6ff31000080fa00000006000200fa0071
:101dd000000f7800eb010700f301070011e1a800f4
:101de0000621ef001e0078004400dd006008880036
:101df0000080fa00000006000400fa0010079800b6
:101e000021e3a80001198000f0cf2f0000806000be
:101e10000019880001198000000e200001007000e8
:101e2000001988002043a90011198000f0ff21004b
:101e300000806000101988002343a9001119800058
:101e400030fc2f00008060001019880025e3a900f5
:101e50002223a9002203a90025e3a900211980005b
:101e6000f00f2e000080600000c0a0002019880044
:101e70002119800000fc2f00008060000000a000fd
:101e80002019880028e3a9001e009000e50f5000eb
:101e900005003a004119800000ff2f00008060001b
:101ea0005000b300401988001e009000eb0f500056
:101eb00006003a004119800000ff2f0000806000fa
:101ec000b000b300401988000500370041198000b8
:101ed00000ff2f00008060005000b3004019880010
:101ee0002ca3a9003023ef0001188000010f780017
:101ef0002023a90021e3a9001e0078008000eb0048
:101f00006011b8000080fa00000006000c00fa0022
:101f1000889fbe005007980021e3a8002043a90035
:101f20002023a8000000000000198000610060006c
:101f30000000e000fcff320021e3a9000828ef00c8
:101f40006000b80050408800614088006000b80020
:101f50006011b800009fbe000297be00803e2000c6
:101f6000400798001d0037005e009000a2ff0700a8
:101f700000007800704088003e00be002e01be00c8
:101f80008cfa07000004be00001880008000eb00ff
:101f9000b7fa0700020020000305240009fb070030
:101fa00002002c00f347240001fa07000200200081
:101fb000a347240003fb07000001be000800be0089
:101fc0009ef907003cfa0700009fbe000297be0082
:101fd000404080000000e80040408800ce009000b3
:101fe00040408000808f5000dfff3e003e00be007a
:101ff0002e01be00843e2000050020006033b800a2
:10200000a0fc0700009fbe000297be003e00be007d
:102010002e01be0067fa070050408800614088002a
:102020002023a900504080006140800022fa070070
:102030004f04be000080fa00000006007a00fa009b
:10204000f40007008000200002010700ad80a90015
:10205000ada0a800adc0a8008660a9009660a80049
:102060006000b8006011b8001007980021079800c0
:1020700032079800430798006000b80050079800a6
:10208000610798006000b80070079800010f980081
:102090000000eb00100f98000000eb00200f9800ec
:1020a0000000eb00000f78001e0fe80000cf2800b2
:1020b00035ff07006e0107000000780002ff0700ef
:1020c00020cf280030ff0700f7ff37000600fa0096
:1020d00010168000640060000000e000080032007c
:1020e00010168000700060000000e0000400320064
:1020f00050168000700060000000e0005f003a00b1
:102100000000eb00000f78000000eb0010079800c3
:102110000000eb00200798001016800064006000ab
:102120000000e0000b003a00101680007000600014
:102130000000e000070032005016800070006000d0
:102140000000e0000300320010002000200798008b
:102150003e00370010168000640060000000e000c0
:102160000b00320010168000700060000000e000dc
:1021700007003a0050168000700060000000e00088
:102180000300320020002000200798002f003700b5
:1021900010168000640060000000e0000b003200b8
:1021a00010168000700060000000e00007003200a0
:1021b00050168000700060000000e00003003a004c
:1021c0003000200020079800200037001016800003
:1021d000640060000000e0000b0032001016800078
:1021e000700060000000e000070032005016800020
:1021f000700060000000e000030032000000eb000f
:10220000200798001100370010168000640060005d
:102210000000e0000b003a00101680007000600023
:102220000000e00007003a005016800070006000d7
:102230000000e00003003a00500020002007980052
:102240000200370040002000200798009e00900008
:102250002e009000808f500001003a001e0fe80011
:102260001e007800e20f500003003c00ae0090001a
:1022700011079800a8ff3700000000000080fa0056
:10228000000006000000fa001016800064006000e4
:102290000000e0000b003a001016800070006000a3
:1022a0000000e0000700320050168000700060005f
:1022b0000000e00003003200cd02a8001000200062
:1022c0005200370010168000640060000000e0003b
:1022d0000b00320010168000700060000000e0006b
:1022e00007003a0050168000700060000000e00017
:1022f00003003200cd02a800300020004300370068
:1023000010168000640060000000e0000b00320046
:1023100010168000700060000000e000070032002e
:1023200050168000700060000000e00003003a00da
:10233000cd02a800200020003400370010168000d5
:10234000640060000000e0000d003a0010168000fc
:10235000700060000000e00009003a0050168000a4
:10236000700060000000e00005003a00e0cd2800a9
:1023700085fe0700cd02a8000000eb002300370017
:1023800010168000640060000000e0000b003200c6
:1023900010168000700060000000e00007003200ae
:1023a00050168000700060000000e0000300320062
:1023b000cd02a9000000eb0014003700cd02a800f8
:1023c00050168000700060000000e0000200320043
:1023d0000000eb000d003700101680007000600058
:1023e0000000e000020032000000eb0007003700b0
:1023f00010168000640060000000e000020032005f
:102400000000eb00010037000000eb000080fa0044
:10241000000006000000fa00c902a900c042a8009e
:10242000c082a800c882a8006020a8006820a80078
:102430006000a8006800a80063c0a8006bc0a800e6
:102440000080eb0060198800cd02a9000080fa002e
:10245000000006000400fa00100798001e0090001b
:10246000e80f500003003a000040eb00004f7800f6
:10247000100037009e009000401f2000808f500009
:1024800003003a0060c6b300004f7800090037002f
:102490009e00900000022000808f500003003a0050
:1024a00050c5b300004f78000200370050c5b3009c
:1024b000004f780011028000000e20000100700023
:1024c00010028800213a8000f08f2f000080600009
:1024d000203a88001e01fb0080072000a10920008f
:1024e000337420008049780081497800824978005f
:1024f00012002000600420007105200023742000d9
:102500008049780081497800824978004207a80014
:1025100000000000103a8000610060000000e00050
:10252000fcff3a0011028000f0f12f0000806000f3
:10253000100288000080fa00000006000400fa0083
:10254000008fbe0000022000c2ff07000d00070040
:10255000150007000621ef001e0078004400dd0092
:102560006008880011e1a8000140fe0011e1a90007
:102570000621ef0080002000b6ff07000080fa006f
:10258000000006000000fa0031058000000027006e
:10259000010070003005880094e0a80084e0a900e4
:1025a0000080fa00000006000000fa0011a1a90056
:1025b0001061a9001021a9008108800000032000fb
:1025c00001007000800888000080fa00000006000a
:1025d0000000fa00c0c2a900c822a8002c63a9000c
:1025e0009640a90037c6a80037a6a900b1318000df
:1025f000f0f32f0000806000b03188003686a9001b
:10260000b03180003000b300b03188008640a900ae
:1026100037e6a800c042a8002c83a9009640a90074
:1026200035c6a90035a6a900a1318000f0f32f001e
:10263000008060000070a000a03188003486a800ef
:10264000a1318000c0ff2f0000806000a031880011
:1026500035e6a80080082000903188003526a900c2
:102660008640a9009640a8000080fa0000000600fd
:102670000000fa00a13180000020200000806000ee
:102680000000e0000c003200904080000000e800f4
:1026900090408800904080008bfd070011002000d2
:1026a000a0c0b30006fd070011002000d0c0b30099
:1026b00003fd07003526a90090408000cf80de0092
:0c26c0006109b9000080fa00000006006b
:020000040000fa
:1026cc0010080000020000000000000000080000dc
:1026dc0008000000000000000808000008000000ce
:1026ec0000000000120800000200000000000000c2
:1026fc0014080000020000000000000000000000b0
:00000001FF
